:020000001628C0
:0E000600831203132B088A002A0882000800C8
:1000140003208A110A128000840AAA0A0319AB0A6F
:08002400F003031D0A28080087
:10002C00B82083160313870188018312AC01AD013C
:10003C00AE01AF0132302F0203185628AD01083043
:10004C002D02031849282D08223E84000008880040
:10005C002C08A03E8400000887000330FC00973079
:10006C00FD00FD0B3728FC0B372800000000AC0A04
:10007C0000302106031D442820082C06031D4728A8
:10008C00AC01AD0A25282E08AC0000302106031D5A
:10009C00512820082E06031D5428AE01AF0A202833
:0A00AC00AE0A2E08AC001F285A28E7
:10017000203084000A3083120313F000AE30AA004E
:100180000030AB000A20A03084004E300313F00092
:0C0190006030AA000030AB000A2008001C
:1000C000FF3491349134913481340034FF3440341E
:1000D0003C344034FF34003400348134FF34813404
:1000E000003400347F3448344C343334003400342A
:1000F000FF34103410341034FF3400343F344834AB
:10010000883448343F3400347F3430341C3406346F
:100110007F340034003400340034003400340034C0
:100120003F344834883448343F340034FF3440345A
:100130003C344034FF3400343F344834883448344D
:100140003F34003400347C34463444344434003486
:0C0150000034003400340034003400346B
:04015C004E340034E9
:1001600080344034203410340834043402340134F0
:02400E007A3BFB
:00000001FF
